{
  "contracts/Lottery.sol": {
    "Raffle": {
      "abi": [
        {
          "inputs": [],
          "name": "enterRaffle",
          "outputs": [],
          "stateMutability": "nonpayable",
          "type": "function"
        }
      ],
      "devdoc": {
        "kind": "dev",
        "methods": {},
        "version": 1
      },
      "evm": {
        "bytecode": {
          "linkReferences": {},
          "object": "6080604052348015600f57600080fd5b50606d80601d6000396000f3fe6080604052348015600f57600080fd5b506004361060285760003560e01c80632cfcc53914602d575b600080fd5b60336035565b005b56fea26469706673582212201fcd47948c0d95318f609cac8bae16bd0a1ce821b999bd8e6ee10ed58e02b5ee64736f6c634300080e0033",
          "opcodes": "PUSH1 0x80 PUSH1 0x40 MSTORE CALLVALUE DUP1 ISZERO PUSH1 0xF JUMPI PUSH1 0x0 DUP1 REVERT JUMPDEST POP PUSH1 0x6D DUP1 PUSH1 0x1D PUSH1 0x0 CODECOPY PUSH1 0x0 RETURN INVALID PUSH1 0x80 PUSH1 0x40 MSTORE CALLVALUE DUP1 ISZERO PUSH1 0xF JUMPI PUSH1 0x0 DUP1 REVERT JUMPDEST POP PUSH1 0x4 CALLDATASIZE LT PUSH1 0x28 JUMPI PUSH1 0x0 CALLDATALOAD PUSH1 0xE0 SHR DUP1 PUSH4 0x2CFCC539 EQ PUSH1 0x2D JUMPI JUMPDEST PUSH1 0x0 DUP1 REVERT JUMPDEST PUSH1 0x33 PUSH1 0x35 JUMP JUMPDEST STOP JUMPDEST JUMP INVALID LOG2 PUSH5 0x6970667358 0x22 SLT KECCAK256 0x1F 0xCD SELFBALANCE SWAP5 DUP13 0xD SWAP6 BALANCE DUP16 PUSH1 0x9C 0xAC DUP12 0xAE AND 0xBD EXP SHR 0xE8 0x21 0xB9 SWAP10 0xBD DUP15 PUSH15 0xE10ED58E02B5EE64736F6C63430008 0xE STOP CALLER "
        },
        "gasEstimates": {
          "creation": {
            "codeDepositCost": "21800",
            "executionCost": "75",
            "totalCost": "21875"
          },
          "external": {
            "enterRaffle()": "122"
          }
        },
        "methodIdentifiers": {
          "enterRaffle()": "2cfcc539"
        }
      },
      "storageLayout": {
        "storage": [],
        "types": null
      },
      "userdoc": {
        "kind": "user",
        "methods": {},
        "version": 1
      }
    }
  }
}