{
  "_format": "hh-sol-artifact-1",
  "contractName": "Raffle",
  "sourceName": "contracts/Lottery.sol",
  "abi": [
    {
      "inputs": [
        {
          "internalType": "address",
          "name": "vrfCoordinatorV2",
          "type": "address"
        },
        {
          "internalType": "uint256",
          "name": "entranceFee",
          "type": "uint256"
        },
        {
          "internalType": "bytes32",
          "name": "gasLane",
          "type": "bytes32"
        },
        {
          "internalType": "uint64",
          "name": "subId",
          "type": "uint64"
        },
        {
          "internalType": "uint32",
          "name": "callbackGasLimit",
          "type": "uint32"
        },
        {
          "internalType": "uint256",
          "name": "interval",
          "type": "uint256"
        }
      ],
      "stateMutability": "nonpayable",
      "type": "constructor"
    },
    {
      "inputs": [
        {
          "internalType": "address",
          "name": "have",
          "type": "address"
        },
        {
          "internalType": "address",
          "name": "want",
          "type": "address"
        }
      ],
      "name": "OnlyCoordinatorCanFulfill",
      "type": "error"
    },
    {
      "inputs": [],
      "name": "Raffle_NotEnoughETHEntered",
      "type": "error"
    },
    {
      "inputs": [],
      "name": "Raffle__NotOpen",
      "type": "error"
    },
    {
      "inputs": [],
      "name": "Raffle__TransferFailed",
      "type": "error"
    },
    {
      "inputs": [
        {
          "internalType": "uint256",
          "name": "currentBalance",
          "type": "uint256"
        },
        {
          "internalType": "uint256",
          "name": "numPlayers",
          "type": "uint256"
        },
        {
          "internalType": "uint256",
          "name": "raffleState",
          "type": "uint256"
        }
      ],
      "name": "Raffle__UpKeepNotNeeded",
      "type": "error"
    },
    {
      "anonymous": false,
      "inputs": [
        {
          "indexed": true,
          "internalType": "address",
          "name": "player",
          "type": "address"
        }
      ],
      "name": "RaffleEnter",
      "type": "event"
    },
    {
      "anonymous": false,
      "inputs": [
        {
          "indexed": true,
          "internalType": "uint256",
          "name": "requestId",
          "type": "uint256"
        }
      ],
      "name": "RequestedRaffleWinner",
      "type": "event"
    },
    {
      "anonymous": false,
      "inputs": [
        {
          "indexed": true,
          "internalType": "address",
          "name": "player",
          "type": "address"
        }
      ],
      "name": "WinnerPicked",
      "type": "event"
    },
    {
      "inputs": [
        {
          "internalType": "bytes",
          "name": "",
          "type": "bytes"
        }
      ],
      "name": "checkUpkeep",
      "outputs": [
        {
          "internalType": "bool",
          "name": "upKeepNeeded",
          "type": "bool"
        },
        {
          "internalType": "bytes",
          "name": "",
          "type": "bytes"
        }
      ],
      "stateMutability": "nonpayable",
      "type": "function"
    },
    {
      "inputs": [],
      "name": "enterRaffle",
      "outputs": [],
      "stateMutability": "payable",
      "type": "function"
    },
    {
      "inputs": [],
      "name": "getEntranceFee",
      "outputs": [
        {
          "internalType": "uint256",
          "name": "",
          "type": "uint256"
        }
      ],
      "stateMutability": "view",
      "type": "function"
    },
    {
      "inputs": [],
      "name": "getNumberOfPlayers",
      "outputs": [
        {
          "internalType": "uint256",
          "name": "",
          "type": "uint256"
        }
      ],
      "stateMutability": "view",
      "type": "function"
    },
    {
      "inputs": [
        {
          "internalType": "uint256",
          "name": "index",
          "type": "uint256"
        }
      ],
      "name": "getPlayer",
      "outputs": [
        {
          "internalType": "address",
          "name": "",
          "type": "address"
        }
      ],
      "stateMutability": "view",
      "type": "function"
    },
    {
      "inputs": [],
      "name": "getRaffleState",
      "outputs": [
        {
          "internalType": "enum Raffle.RaffleState",
          "name": "",
          "type": "uint8"
        }
      ],
      "stateMutability": "view",
      "type": "function"
    },
    {
      "inputs": [],
      "name": "getRecentWinner",
      "outputs": [
        {
          "internalType": "address",
          "name": "",
          "type": "address"
        }
      ],
      "stateMutability": "view",
      "type": "function"
    },
    {
      "inputs": [],
      "name": "getTimeStamp",
      "outputs": [
        {
          "internalType": "uint256",
          "name": "",
          "type": "uint256"
        }
      ],
      "stateMutability": "view",
      "type": "function"
    },
    {
      "inputs": [],
      "name": "getWords",
      "outputs": [
        {
          "internalType": "uint256",
          "name": "",
          "type": "uint256"
        }
      ],
      "stateMutability": "pure",
      "type": "function"
    },
    {
      "inputs": [
        {
          "internalType": "bytes",
          "name": "",
          "type": "bytes"
        }
      ],
      "name": "performUpkeep",
      "outputs": [],
      "stateMutability": "nonpayable",
      "type": "function"
    },
    {
      "inputs": [
        {
          "internalType": "uint256",
          "name": "requestId",
          "type": "uint256"
        },
        {
          "internalType": "uint256[]",
          "name": "randomWords",
          "type": "uint256[]"
        }
      ],
      "name": "rawFulfillRandomWords",
      "outputs": [],
      "stateMutability": "nonpayable",
      "type": "function"
    }
  ],
  "bytecode": "0x6101606040523480156200001257600080fd5b50604051620017b3380380620017b38339818101604052810190620000389190620002a0565b858073ffffffffffffffffffffffffffffffffffffffff1660808173ffffffffffffffffffffffffffffffffffffffff1660601b81525050508460a081815250508573ffffffffffffffffffffffffffffffffffffffff1660c08173ffffffffffffffffffffffffffffffffffffffff1660601b815250508360e081815250508267ffffffffffffffff166101008167ffffffffffffffff1660c01b815250508163ffffffff166101208163ffffffff1660e01b815250506000600160146101000a81548160ff021916908360018111156200011957620001186200033c565b5b0217905550426002819055508061014081815250505050505050506200036b565b600080fd5b600073ffffffffffffffffffffffffffffffffffffffff82169050919050565b60006200016c826200013f565b9050919050565b6200017e816200015f565b81146200018a57600080fd5b50565b6000815190506200019e8162000173565b92915050565b6000819050919050565b620001b981620001a4565b8114620001c557600080fd5b50565b600081519050620001d981620001ae565b92915050565b6000819050919050565b620001f481620001df565b81146200020057600080fd5b50565b6000815190506200021481620001e9565b92915050565b600067ffffffffffffffff82169050919050565b62000239816200021a565b81146200024557600080fd5b50565b60008151905062000259816200022e565b92915050565b600063ffffffff82169050919050565b6200027a816200025f565b81146200028657600080fd5b50565b6000815190506200029a816200026f565b92915050565b60008060008060008060c08789031215620002c057620002bf6200013a565b5b6000620002d089828a016200018d565b9650506020620002e389828a01620001c8565b9550506040620002f689828a0162000203565b94505060606200030989828a0162000248565b93505060806200031c89828a0162000289565b92505060a06200032f89828a01620001c8565b9150509295509295509295565b7f4e487b7100000000000000000000000000000000000000000000000000000000600052602160045260246000fd5b60805160601c60a05160c05160601c60e0516101005160c01c6101205160e01c610140516113d3620003e060003960006107540152600061061f015260006105fc015260006105db0152600061059f01526000818161027e015261037b0152600081816102bb015261030f01526113d36000f3fe60806040526004361061009c5760003560e01c8063473f1ddc11610064578063473f1ddc146101535780636e04ff0d1461017e578063da235b22146101bc578063dca7bcbe146101e7578063e55ae4e814610212578063fd6673f51461024f5761009c565b806309bc33a7146100a1578063115cbaf5146100cc5780631fe543e3146100f75780632cfcc539146101205780634585e33b1461012a575b600080fd5b3480156100ad57600080fd5b506100b661027a565b6040516100c39190610b19565b60405180910390f35b3480156100d857600080fd5b506100e16102a2565b6040516100ee9190610bab565b60405180910390f35b34801561010357600080fd5b5061011e60048036038101906101199190610d5f565b6102b9565b005b610128610379565b005b34801561013657600080fd5b50610151600480360381019061014c9190610e16565b6104e8565b005b34801561015f57600080fd5b506101686106e7565b6040516101759190610ea4565b60405180910390f35b34801561018a57600080fd5b506101a560048036038101906101a09190610f74565b610711565b6040516101b3929190611060565b60405180910390f35b3480156101c857600080fd5b506101d16107be565b6040516101de9190610b19565b60405180910390f35b3480156101f357600080fd5b506101fc6107c8565b6040516102099190610b19565b60405180910390f35b34801561021e57600080fd5b5061023960048036038101906102349190611090565b6107d5565b6040516102469190610ea4565b60405180910390f35b34801561025b57600080fd5b5061026461081c565b6040516102719190610b19565b60405180910390f35b60007f0000000000000000000000000000000000000000000000000000000000000000905090565b6000600160149054906101000a900460ff16905090565b7f000000000000000000000000000000000000000000000000000000000000000073ffffffffffffffffffffffffffffffffffffffff163373ffffffffffffffffffffffffffffffffffffffff161461036b57337f00000000000000000000000000000000000000000000000000000000000000006040517f1cf993f40000000000000000000000000000000000000000000000000000000081526004016103629291906110bd565b60405180910390fd5b6103758282610828565b5050565b7f00000000000000000000000000000000000000000000000000000000000000003410156103d3576040517f74938f2700000000000000000000000000000000000000000000000000000000815260040160405180910390fd5b600060018111156103e7576103e6610b34565b5b600160149054906101000a900460ff16600181111561040957610408610b34565b5b14610440576040517f1425571c00000000000000000000000000000000000000000000000000000000815260040160405180910390fd5b6000339080600181540180825580915050600190039060005260206000200160009091909190916101000a81548173ffffffffffffffffffffffffffffffffffffffff021916908373ffffffffffffffffffffffffffffffffffffffff1602179055503373ffffffffffffffffffffffffffffffffffffffff167f0805e1d667bddb8a95f0f09880cf94f403fb596ce79928d9f29b74203ba284d460405160405180910390a2565b600061050260405180602001604052806000815250610711565b509050806105715760008054905047600160149054906101000a900460ff16600181111561053357610532610b34565b5b6040517f3a8d6086000000000000000000000000000000000000000000000000000000008152600401610568939291906110e6565b60405180910390fd5b60018060146101000a81548160ff0219169083600181111561059657610595610b34565b5b021790555060007f000000000000000000000000000000000000000000000000000000000000000073ffffffffffffffffffffffffffffffffffffffff16635d3b1d307f00000000000000000000000000000000000000000000000000000000000000007f000000000000000000000000000000000000000000000000000000000000000060037f000000000000000000000000000000000000000000000000000000000000000060016040518663ffffffff1660e01b81526004016106609594939291906111d0565b602060405180830381600087803b15801561067a57600080fd5b505af115801561068e573d6000803e3d6000fd5b505050506040513d601f19601f820116820180604052508101906106b29190611238565b9050807fcd6e45c8998311cab7e9d4385596cac867e20a0587194b954fa3a731c93ce78b60405160405180910390a250505050565b6000600160009054906101000a900473ffffffffffffffffffffffffffffffffffffffff16905090565b600060606000600160149054906101000a900460ff16600181111561073957610738610b34565b5b6000600181111561074d5761074c610b34565b5b14905060007f0000000000000000000000000000000000000000000000000000000000000000600254426107819190611294565b119050600080600080549050119050600080471190508380156107a15750825b80156107aa5750805b80156107b35750815b955050505050915091565b6000600254905090565b6000600161ffff16905090565b60008082815481106107ea576107e96112c8565b5b9060005260206000200160009054906101000a900473ffffffffffffffffffffffffffffffffffffffff169050919050565b60008080549050905090565b6000808054905082600081518110610843576108426112c8565b5b60200260200101516108559190611326565b9050600080828154811061086c5761086b6112c8565b5b9060005260206000200160009054906101000a900473ffffffffffffffffffffffffffffffffffffffff16905080600160006101000a81548173ffffffffffffffffffffffffffffffffffffffff021916908373ffffffffffffffffffffffffffffffffffffffff1602179055506000600160146101000a81548160ff02191690836001811115610900576108ff610b34565b5b0217905550600067ffffffffffffffff8111156109205761091f610c1c565b5b60405190808252806020026020018201604052801561094e5781602001602082028036833780820191505090505b5060009080519060200190610964929190610a59565b504260028190555060008173ffffffffffffffffffffffffffffffffffffffff164760405161099290611388565b60006040518083038185875af1925050503d80600081146109cf576040519150601f19603f3d011682016040523d82523d6000602084013e6109d4565b606091505b5050905080610a0f576040517fa1d04b3900000000000000000000000000000000000000000000000000000000815260040160405180910390fd5b8173ffffffffffffffffffffffffffffffffffffffff167f5b690ec4a06fe979403046eaeea5b3ce38524683c3001f662c8b5a829632f7df60405160405180910390a25050505050565b828054828255906000526020600020908101928215610ad2579160200282015b82811115610ad15782518260006101000a81548173ffffffffffffffffffffffffffffffffffffffff021916908373ffffffffffffffffffffffffffffffffffffffff16021790555091602001919060010190610a79565b5b509050610adf9190610ae3565b5090565b5b80821115610afc576000816000905550600101610ae4565b5090565b6000819050919050565b610b1381610b00565b82525050565b6000602082019050610b2e6000830184610b0a565b92915050565b7f4e487b7100000000000000000000000000000000000000000000000000000000600052602160045260246000fd5b60028110610b7457610b73610b34565b5b50565b6000819050610b8582610b63565b919050565b6000610b9582610b77565b9050919050565b610ba581610b8a565b82525050565b6000602082019050610bc06000830184610b9c565b92915050565b6000604051905090565b600080fd5b600080fd5b610be381610b00565b8114610bee57600080fd5b50565b600081359050610c0081610bda565b92915050565b600080fd5b6000601f19601f8301169050919050565b7f4e487b7100000000000000000000000000000000000000000000000000000000600052604160045260246000fd5b610c5482610c0b565b810181811067ffffffffffffffff82111715610c7357610c72610c1c565b5b80604052505050565b6000610c86610bc6565b9050610c928282610c4b565b919050565b600067ffffffffffffffff821115610cb257610cb1610c1c565b5b602082029050602081019050919050565b600080fd5b6000610cdb610cd684610c97565b610c7c565b90508083825260208201905060208402830185811115610cfe57610cfd610cc3565b5b835b81811015610d275780610d138882610bf1565b845260208401935050602081019050610d00565b5050509392505050565b600082601f830112610d4657610d45610c06565b5b8135610d56848260208601610cc8565b91505092915050565b60008060408385031215610d7657610d75610bd0565b5b6000610d8485828601610bf1565b925050602083013567ffffffffffffffff811115610da557610da4610bd5565b5b610db185828601610d31565b9150509250929050565b600080fd5b60008083601f840112610dd657610dd5610c06565b5b8235905067ffffffffffffffff811115610df357610df2610dbb565b5b602083019150836001820283011115610e0f57610e0e610cc3565b5b9250929050565b60008060208385031215610e2d57610e2c610bd0565b5b600083013567ffffffffffffffff811115610e4b57610e4a610bd5565b5b610e5785828601610dc0565b92509250509250929050565b600073ffffffffffffffffffffffffffffffffffffffff82169050919050565b6000610e8e82610e63565b9050919050565b610e9e81610e83565b82525050565b6000602082019050610eb96000830184610e95565b92915050565b600080fd5b600067ffffffffffffffff821115610edf57610ede610c1c565b5b610ee882610c0b565b9050602081019050919050565b82818337600083830152505050565b6000610f17610f1284610ec4565b610c7c565b905082815260208101848484011115610f3357610f32610ebf565b5b610f3e848285610ef5565b509392505050565b600082601f830112610f5b57610f5a610c06565b5b8135610f6b848260208601610f04565b91505092915050565b600060208284031215610f8a57610f89610bd0565b5b600082013567ffffffffffffffff811115610fa857610fa7610bd5565b5b610fb484828501610f46565b91505092915050565b60008115159050919050565b610fd281610fbd565b82525050565b600081519050919050565b600082825260208201905092915050565b60005b83811015611012578082015181840152602081019050610ff7565b83811115611021576000848401525b50505050565b600061103282610fd8565b61103c8185610fe3565b935061104c818560208601610ff4565b61105581610c0b565b840191505092915050565b60006040820190506110756000830185610fc9565b81810360208301526110878184611027565b90509392505050565b6000602082840312156110a6576110a5610bd0565b5b60006110b484828501610bf1565b91505092915050565b60006040820190506110d26000830185610e95565b6110df6020830184610e95565b9392505050565b60006060820190506110fb6000830186610b0a565b6111086020830185610b0a565b6111156040830184610b0a565b949350505050565b6000819050919050565b6111308161111d565b82525050565b600067ffffffffffffffff82169050919050565b61115381611136565b82525050565b600061ffff82169050919050565b61117081611159565b82525050565b600063ffffffff82169050919050565b61118f81611176565b82525050565b6000819050919050565b60006111ba6111b56111b084611159565b611195565b611176565b9050919050565b6111ca8161119f565b82525050565b600060a0820190506111e56000830188611127565b6111f2602083018761114a565b6111ff6040830186611167565b61120c6060830185611186565b61121960808301846111c1565b9695505050505050565b60008151905061123281610bda565b92915050565b60006020828403121561124e5761124d610bd0565b5b600061125c84828501611223565b91505092915050565b7f4e487b7100000000000000000000000000000000000000000000000000000000600052601160045260246000fd5b600061129f82610b00565b91506112aa83610b00565b9250828210156112bd576112bc611265565b5b828203905092915050565b7f4e487b7100000000000000000000000000000000000000000000000000000000600052603260045260246000fd5b7f4e487b7100000000000000000000000000000000000000000000000000000000600052601260045260246000fd5b600061133182610b00565b915061133c83610b00565b92508261134c5761134b6112f7565b5b828206905092915050565b600081905092915050565b50565b6000611372600083611357565b915061137d82611362565b600082019050919050565b600061139382611365565b915081905091905056fea2646970667358221220fe8d5d90ff924dfab7f1ba06f82fb8a001a4e30778fe7895ad79939d2fc145d664736f6c63430008080033",
  "linkReferences": {},
  "deployedLinkReferences": {}
}