{
  "_format": "hh-sol-artifact-1",
  "contractName": "Raffle",
  "sourceName": "contracts/Raffle.sol",
  "abi": [
    {
      "inputs": [
        {
          "internalType": "address",
          "name": "vrfCoordinatorV2",
          "type": "address"
        },
        {
          "internalType": "uint256",
          "name": "entranceFee",
          "type": "uint256"
        },
        {
          "internalType": "bytes32",
          "name": "gasLane",
          "type": "bytes32"
        },
        {
          "internalType": "uint64",
          "name": "subId",
          "type": "uint64"
        },
        {
          "internalType": "uint32",
          "name": "callbackGasLimit",
          "type": "uint32"
        },
        {
          "internalType": "uint256",
          "name": "interval",
          "type": "uint256"
        }
      ],
      "stateMutability": "nonpayable",
      "type": "constructor"
    },
    {
      "inputs": [
        {
          "internalType": "address",
          "name": "have",
          "type": "address"
        },
        {
          "internalType": "address",
          "name": "want",
          "type": "address"
        }
      ],
      "name": "OnlyCoordinatorCanFulfill",
      "type": "error"
    },
    {
      "inputs": [],
      "name": "Raffle_NotEnoughETHEntered",
      "type": "error"
    },
    {
      "inputs": [],
      "name": "Raffle__NotOpen",
      "type": "error"
    },
    {
      "inputs": [],
      "name": "Raffle__TransferFailed",
      "type": "error"
    },
    {
      "inputs": [
        {
          "internalType": "uint256",
          "name": "currentBalance",
          "type": "uint256"
        },
        {
          "internalType": "uint256",
          "name": "numPlayers",
          "type": "uint256"
        },
        {
          "internalType": "uint256",
          "name": "raffleState",
          "type": "uint256"
        }
      ],
      "name": "Raffle__UpKeepNotNeeded",
      "type": "error"
    },
    {
      "anonymous": false,
      "inputs": [
        {
          "indexed": true,
          "internalType": "address",
          "name": "player",
          "type": "address"
        }
      ],
      "name": "RaffleEnter",
      "type": "event"
    },
    {
      "anonymous": false,
      "inputs": [
        {
          "indexed": true,
          "internalType": "uint256",
          "name": "requestId",
          "type": "uint256"
        }
      ],
      "name": "RequestedRaffleWinner",
      "type": "event"
    },
    {
      "anonymous": false,
      "inputs": [
        {
          "indexed": true,
          "internalType": "address",
          "name": "player",
          "type": "address"
        }
      ],
      "name": "WinnerPicked",
      "type": "event"
    },
    {
      "inputs": [
        {
          "internalType": "bytes",
          "name": "",
          "type": "bytes"
        }
      ],
      "name": "checkUpkeep",
      "outputs": [
        {
          "internalType": "bool",
          "name": "upKeepNeeded",
          "type": "bool"
        },
        {
          "internalType": "bytes",
          "name": "",
          "type": "bytes"
        }
      ],
      "stateMutability": "nonpayable",
      "type": "function"
    },
    {
      "inputs": [],
      "name": "enterRaffle",
      "outputs": [],
      "stateMutability": "payable",
      "type": "function"
    },
    {
      "inputs": [],
      "name": "getEntranceFee",
      "outputs": [
        {
          "internalType": "uint256",
          "name": "",
          "type": "uint256"
        }
      ],
      "stateMutability": "view",
      "type": "function"
    },
    {
      "inputs": [],
      "name": "getInterval",
      "outputs": [
        {
          "internalType": "uint256",
          "name": "",
          "type": "uint256"
        }
      ],
      "stateMutability": "view",
      "type": "function"
    },
    {
      "inputs": [],
      "name": "getNumberOfPlayers",
      "outputs": [
        {
          "internalType": "uint256",
          "name": "",
          "type": "uint256"
        }
      ],
      "stateMutability": "view",
      "type": "function"
    },
    {
      "inputs": [
        {
          "internalType": "uint256",
          "name": "index",
          "type": "uint256"
        }
      ],
      "name": "getPlayer",
      "outputs": [
        {
          "internalType": "address",
          "name": "",
          "type": "address"
        }
      ],
      "stateMutability": "view",
      "type": "function"
    },
    {
      "inputs": [],
      "name": "getRaffleState",
      "outputs": [
        {
          "internalType": "enum Raffle.RaffleState",
          "name": "",
          "type": "uint8"
        }
      ],
      "stateMutability": "view",
      "type": "function"
    },
    {
      "inputs": [],
      "name": "getRecentWinner",
      "outputs": [
        {
          "internalType": "address",
          "name": "",
          "type": "address"
        }
      ],
      "stateMutability": "view",
      "type": "function"
    },
    {
      "inputs": [],
      "name": "getTimeStamp",
      "outputs": [
        {
          "internalType": "uint256",
          "name": "",
          "type": "uint256"
        }
      ],
      "stateMutability": "view",
      "type": "function"
    },
    {
      "inputs": [],
      "name": "getWords",
      "outputs": [
        {
          "internalType": "uint256",
          "name": "",
          "type": "uint256"
        }
      ],
      "stateMutability": "pure",
      "type": "function"
    },
    {
      "inputs": [
        {
          "internalType": "bytes",
          "name": "",
          "type": "bytes"
        }
      ],
      "name": "performUpkeep",
      "outputs": [],
      "stateMutability": "nonpayable",
      "type": "function"
    },
    {
      "inputs": [
        {
          "internalType": "uint256",
          "name": "requestId",
          "type": "uint256"
        },
        {
          "internalType": "uint256[]",
          "name": "randomWords",
          "type": "uint256[]"
        }
      ],
      "name": "rawFulfillRandomWords",
      "outputs": [],
      "stateMutability": "nonpayable",
      "type": "function"
    }
  ],
  "bytecode": "0x6101606040523480156200001257600080fd5b5060405162001818380380620018188339818101604052810190620000389190620002a0565b858073ffffffffffffffffffffffffffffffffffffffff1660808173ffffffffffffffffffffffffffffffffffffffff1660601b81525050508460a081815250508573ffffffffffffffffffffffffffffffffffffffff1660c08173ffffffffffffffffffffffffffffffffffffffff1660601b815250508360e081815250508267ffffffffffffffff166101008167ffffffffffffffff1660c01b815250508163ffffffff166101208163ffffffff1660e01b815250506000600160146101000a81548160ff021916908360018111156200011957620001186200033c565b5b0217905550426002819055508061014081815250505050505050506200036b565b600080fd5b600073ffffffffffffffffffffffffffffffffffffffff82169050919050565b60006200016c826200013f565b9050919050565b6200017e816200015f565b81146200018a57600080fd5b50565b6000815190506200019e8162000173565b92915050565b6000819050919050565b620001b981620001a4565b8114620001c557600080fd5b50565b600081519050620001d981620001ae565b92915050565b6000819050919050565b620001f481620001df565b81146200020057600080fd5b50565b6000815190506200021481620001e9565b92915050565b600067ffffffffffffffff82169050919050565b62000239816200021a565b81146200024557600080fd5b50565b60008151905062000259816200022e565b92915050565b600063ffffffff82169050919050565b6200027a816200025f565b81146200028657600080fd5b50565b6000815190506200029a816200026f565b92915050565b60008060008060008060c08789031215620002c057620002bf6200013a565b5b6000620002d089828a016200018d565b9650506020620002e389828a01620001c8565b9550506040620002f689828a0162000203565b94505060606200030989828a0162000248565b93505060806200031c89828a0162000289565b92505060a06200032f89828a01620001c8565b9150509295509295509295565b7f4e487b7100000000000000000000000000000000000000000000000000000000600052602160045260246000fd5b60805160601c60a05160c05160601c60e0516101005160c01c6101205160e01c61014051611431620003e76000396000818161078a01526107f8015260006106550152600061063201526000610611015260006105d50152600081816102b401526103b10152600081816102f1015261034501526114316000f3fe6080604052600436106100a75760003560e01c80636e04ff0d116100645780636e04ff0d1461018957806391ad27b4146101c7578063da235b22146101f2578063dca7bcbe1461021d578063e55ae4e814610248578063fd6673f514610285576100a7565b806309bc33a7146100ac578063115cbaf5146100d75780631fe543e3146101025780632cfcc5391461012b5780634585e33b14610135578063473f1ddc1461015e575b600080fd5b3480156100b857600080fd5b506100c16102b0565b6040516100ce9190610b77565b60405180910390f35b3480156100e357600080fd5b506100ec6102d8565b6040516100f99190610c09565b60405180910390f35b34801561010e57600080fd5b5061012960048036038101906101249190610dbd565b6102ef565b005b6101336103af565b005b34801561014157600080fd5b5061015c60048036038101906101579190610e74565b61051e565b005b34801561016a57600080fd5b5061017361071d565b6040516101809190610f02565b60405180910390f35b34801561019557600080fd5b506101b060048036038101906101ab9190610fd2565b610747565b6040516101be9291906110be565b60405180910390f35b3480156101d357600080fd5b506101dc6107f4565b6040516101e99190610b77565b60405180910390f35b3480156101fe57600080fd5b5061020761081c565b6040516102149190610b77565b60405180910390f35b34801561022957600080fd5b50610232610826565b60405161023f9190610b77565b60405180910390f35b34801561025457600080fd5b5061026f600480360381019061026a91906110ee565b610833565b60405161027c9190610f02565b60405180910390f35b34801561029157600080fd5b5061029a61087a565b6040516102a79190610b77565b60405180910390f35b60007f0000000000000000000000000000000000000000000000000000000000000000905090565b6000600160149054906101000a900460ff16905090565b7f000000000000000000000000000000000000000000000000000000000000000073ffffffffffffffffffffffffffffffffffffffff163373ffffffffffffffffffffffffffffffffffffffff16146103a157337f00000000000000000000000000000000000000000000000000000000000000006040517f1cf993f400000000000000000000000000000000000000000000000000000000815260040161039892919061111b565b60405180910390fd5b6103ab8282610886565b5050565b7f0000000000000000000000000000000000000000000000000000000000000000341015610409576040517f74938f2700000000000000000000000000000000000000000000000000000000815260040160405180910390fd5b6000600181111561041d5761041c610b92565b5b600160149054906101000a900460ff16600181111561043f5761043e610b92565b5b14610476576040517f1425571c00000000000000000000000000000000000000000000000000000000815260040160405180910390fd5b6000339080600181540180825580915050600190039060005260206000200160009091909190916101000a81548173ffffffffffffffffffffffffffffffffffffffff021916908373ffffffffffffffffffffffffffffffffffffffff1602179055503373ffffffffffffffffffffffffffffffffffffffff167f0805e1d667bddb8a95f0f09880cf94f403fb596ce79928d9f29b74203ba284d460405160405180910390a2565b600061053860405180602001604052806000815250610747565b509050806105a75760008054905047600160149054906101000a900460ff16600181111561056957610568610b92565b5b6040517f3a8d608600000000000000000000000000000000000000000000000000000000815260040161059e93929190611144565b60405180910390fd5b60018060146101000a81548160ff021916908360018111156105cc576105cb610b92565b5b021790555060007f000000000000000000000000000000000000000000000000000000000000000073ffffffffffffffffffffffffffffffffffffffff16635d3b1d307f00000000000000000000000000000000000000000000000000000000000000007f000000000000000000000000000000000000000000000000000000000000000060037f000000000000000000000000000000000000000000000000000000000000000060016040518663ffffffff1660e01b815260040161069695949392919061122e565b602060405180830381600087803b1580156106b057600080fd5b505af11580156106c4573d6000803e3d6000fd5b505050506040513d601f19601f820116820180604052508101906106e89190611296565b9050807fcd6e45c8998311cab7e9d4385596cac867e20a0587194b954fa3a731c93ce78b60405160405180910390a250505050565b6000600160009054906101000a900473ffffffffffffffffffffffffffffffffffffffff16905090565b600060606000600160149054906101000a900460ff16600181111561076f5761076e610b92565b5b6000600181111561078357610782610b92565b5b14905060007f0000000000000000000000000000000000000000000000000000000000000000600254426107b791906112f2565b119050600080600080549050119050600080471190508380156107d75750825b80156107e05750805b80156107e95750815b955050505050915091565b60007f0000000000000000000000000000000000000000000000000000000000000000905090565b6000600254905090565b6000600161ffff16905090565b600080828154811061084857610847611326565b5b9060005260206000200160009054906101000a900473ffffffffffffffffffffffffffffffffffffffff169050919050565b60008080549050905090565b60008080549050826000815181106108a1576108a0611326565b5b60200260200101516108b39190611384565b905060008082815481106108ca576108c9611326565b5b9060005260206000200160009054906101000a900473ffffffffffffffffffffffffffffffffffffffff16905080600160006101000a81548173ffffffffffffffffffffffffffffffffffffffff021916908373ffffffffffffffffffffffffffffffffffffffff1602179055506000600160146101000a81548160ff0219169083600181111561095e5761095d610b92565b5b0217905550600067ffffffffffffffff81111561097e5761097d610c7a565b5b6040519080825280602002602001820160405280156109ac5781602001602082028036833780820191505090505b50600090805190602001906109c2929190610ab7565b504260028190555060008173ffffffffffffffffffffffffffffffffffffffff16476040516109f0906113e6565b60006040518083038185875af1925050503d8060008114610a2d576040519150601f19603f3d011682016040523d82523d6000602084013e610a32565b606091505b5050905080610a6d576040517fa1d04b3900000000000000000000000000000000000000000000000000000000815260040160405180910390fd5b8173ffffffffffffffffffffffffffffffffffffffff167f5b690ec4a06fe979403046eaeea5b3ce38524683c3001f662c8b5a829632f7df60405160405180910390a25050505050565b828054828255906000526020600020908101928215610b30579160200282015b82811115610b2f5782518260006101000a81548173ffffffffffffffffffffffffffffffffffffffff021916908373ffffffffffffffffffffffffffffffffffffffff16021790555091602001919060010190610ad7565b5b509050610b3d9190610b41565b5090565b5b80821115610b5a576000816000905550600101610b42565b5090565b6000819050919050565b610b7181610b5e565b82525050565b6000602082019050610b8c6000830184610b68565b92915050565b7f4e487b7100000000000000000000000000000000000000000000000000000000600052602160045260246000fd5b60028110610bd257610bd1610b92565b5b50565b6000819050610be382610bc1565b919050565b6000610bf382610bd5565b9050919050565b610c0381610be8565b82525050565b6000602082019050610c1e6000830184610bfa565b92915050565b6000604051905090565b600080fd5b600080fd5b610c4181610b5e565b8114610c4c57600080fd5b50565b600081359050610c5e81610c38565b92915050565b600080fd5b6000601f19601f8301169050919050565b7f4e487b7100000000000000000000000000000000000000000000000000000000600052604160045260246000fd5b610cb282610c69565b810181811067ffffffffffffffff82111715610cd157610cd0610c7a565b5b80604052505050565b6000610ce4610c24565b9050610cf08282610ca9565b919050565b600067ffffffffffffffff821115610d1057610d0f610c7a565b5b602082029050602081019050919050565b600080fd5b6000610d39610d3484610cf5565b610cda565b90508083825260208201905060208402830185811115610d5c57610d5b610d21565b5b835b81811015610d855780610d718882610c4f565b845260208401935050602081019050610d5e565b5050509392505050565b600082601f830112610da457610da3610c64565b5b8135610db4848260208601610d26565b91505092915050565b60008060408385031215610dd457610dd3610c2e565b5b6000610de285828601610c4f565b925050602083013567ffffffffffffffff811115610e0357610e02610c33565b5b610e0f85828601610d8f565b9150509250929050565b600080fd5b60008083601f840112610e3457610e33610c64565b5b8235905067ffffffffffffffff811115610e5157610e50610e19565b5b602083019150836001820283011115610e6d57610e6c610d21565b5b9250929050565b60008060208385031215610e8b57610e8a610c2e565b5b600083013567ffffffffffffffff811115610ea957610ea8610c33565b5b610eb585828601610e1e565b92509250509250929050565b600073ffffffffffffffffffffffffffffffffffffffff82169050919050565b6000610eec82610ec1565b9050919050565b610efc81610ee1565b82525050565b6000602082019050610f176000830184610ef3565b92915050565b600080fd5b600067ffffffffffffffff821115610f3d57610f3c610c7a565b5b610f4682610c69565b9050602081019050919050565b82818337600083830152505050565b6000610f75610f7084610f22565b610cda565b905082815260208101848484011115610f9157610f90610f1d565b5b610f9c848285610f53565b509392505050565b600082601f830112610fb957610fb8610c64565b5b8135610fc9848260208601610f62565b91505092915050565b600060208284031215610fe857610fe7610c2e565b5b600082013567ffffffffffffffff81111561100657611005610c33565b5b61101284828501610fa4565b91505092915050565b60008115159050919050565b6110308161101b565b82525050565b600081519050919050565b600082825260208201905092915050565b60005b83811015611070578082015181840152602081019050611055565b8381111561107f576000848401525b50505050565b600061109082611036565b61109a8185611041565b93506110aa818560208601611052565b6110b381610c69565b840191505092915050565b60006040820190506110d36000830185611027565b81810360208301526110e58184611085565b90509392505050565b60006020828403121561110457611103610c2e565b5b600061111284828501610c4f565b91505092915050565b60006040820190506111306000830185610ef3565b61113d6020830184610ef3565b9392505050565b60006060820190506111596000830186610b68565b6111666020830185610b68565b6111736040830184610b68565b949350505050565b6000819050919050565b61118e8161117b565b82525050565b600067ffffffffffffffff82169050919050565b6111b181611194565b82525050565b600061ffff82169050919050565b6111ce816111b7565b82525050565b600063ffffffff82169050919050565b6111ed816111d4565b82525050565b6000819050919050565b600061121861121361120e846111b7565b6111f3565b6111d4565b9050919050565b611228816111fd565b82525050565b600060a0820190506112436000830188611185565b61125060208301876111a8565b61125d60408301866111c5565b61126a60608301856111e4565b611277608083018461121f565b9695505050505050565b60008151905061129081610c38565b92915050565b6000602082840312156112ac576112ab610c2e565b5b60006112ba84828501611281565b91505092915050565b7f4e487b7100000000000000000000000000000000000000000000000000000000600052601160045260246000fd5b60006112fd82610b5e565b915061130883610b5e565b92508282101561131b5761131a6112c3565b5b828203905092915050565b7f4e487b7100000000000000000000000000000000000000000000000000000000600052603260045260246000fd5b7f4e487b7100000000000000000000000000000000000000000000000000000000600052601260045260246000fd5b600061138f82610b5e565b915061139a83610b5e565b9250826113aa576113a9611355565b5b828206905092915050565b600081905092915050565b50565b60006113d06000836113b5565b91506113db826113c0565b600082019050919050565b60006113f1826113c3565b915081905091905056fea26469706673582212207d6cdbef8fabed0f3fb5574cfb5038906e9e9cfe0a458dd50f760be1585682b464736f6c63430008080033",
  "linkReferences": {},
  "deployedLinkReferences": {}
}